:1000000019C028C027C027C025C024C023C022C0D3
:1000100021C020C01FC01EC01DC01CC01BC01AC0F4
:1000200019C018C017C0B9C015C014C013C012C081
:1000300011C010C011241FBECFEFCDBFDFE3DEBF64
:100040002FE3A0E8BFE301C01D92AA39B207E1F790
:10005000FBD092C1D5CF1F920F920FB60F921124F1
:100060002F933F934F935F938F939F9380E883B930
:1000700092B19095991F9927991F82B12091833F42
:10008000291709F470C086FB882780F921E08227B0
:100090009093833F2091823F281709F464C0809396
:1000A000823F2091853F3091863F981303C0319560
:1000B0002195310940918B3F50918C3F240F351F82
:1000C00020938B3F30938C3F21E0981320E04091A8
:1000D000813F50E02417150699F098134FC0809186
:1000E000853F9091863F91958195910940918B3FF5
:1000F00050918C3F840F951F80938B3F90938C3F42
:1001000040918B3F50918C3F8091893F90918A3FE5
:100110004817590764F48091843F8823A1F18091A6
:10012000873F9091883F80938B3F90938C3F409185
:100130008B3F50918C3F8091873F9091883F8417EF
:10014000950764F48091843F882311F18091893F61
:1001500090918A3F80938B3F90938C3F2093813F77
:1001600081E080938D3F9F918F915F914F913F915F
:100170002F910F900FBE0F901F9018958091853F83
:100180009091863FB3CF8091893F90918A3FCBCFAA
:100190008091873F9091883FDDCF1F920F920FB6DD
:1001A0000F9211248F939F93EF93FF9380911B08DD
:1001B00086FF15C080911B0880FF11C083E08093EB
:1001C0001A081092803F81E08093983FFF91EF9151
:1001D0009F918F910F900FBE0F901F901895809157
:1001E0001B0887FF23C090911B088091803FE82F58
:1001F000F0E0E257F04C91FF0CC0908190931D0805
:1002000093E090931A088F5F8A3068F48093803F60
:10021000DDCF90911D08908393E090931A0891E0B0
:100220009093993FF0CF1092803FD0CF80911B08E0
:1002300086FFCCCF80911B0880FDC8CF82E08093E1
:100240001A081092983FC2CF88ED91E084BF909336
:1002500061008CE680931C0881EE809319088091E0
:100260001704886080931704809116048860809337
:10027000160480911304886080931304789471E0CD
:100280008091993F882309F453C08091983F811150
:100290004FC0F89480918E3F90918F3F4091923F54
:1002A0005091933F2091943F3091953FA091963F7C
:1002B000B091973F1092993F7894E091913F60916F
:1002C0001704687F60931704440F551F4093893FBC
:1002D00050938A3F220F331F2093873F3093883FEC
:1002E000A093853FB093863F880F991F80938B3FE3
:1002F00090938C3FE093843F82B18095881F88273C
:10030000881F8093833F82B186FB882780F98727E7
:100310008093823F2091833F9091823F81E0291317
:1003200080E08093813F809117048160809317045F
:1003300080918D3F8823C1F08091993F811114C035
:100340008091983F811110C0F89480918B3F9091DB
:100350008C3F97FD01969595879580938E3F90935E
:100360008F3F10928D3F789482B183FB882780F96C
:0C03700087278093903F84CFF894FFCF44
:00000001FF
